:020000040000FA
:040600005DEF03F0B7
:100608001F061F061F061F061E061F061F061F06BB
:100618001F061F061F061F061F061F061F061F06AA
:100628001F06AE01AE01AE011F061F061F061F06FC
:100638001F061F061F061F061F061F061F06EC05BE
:100648001F061F061F061F061F061F061F061F067A
:100658001F061F061F06AE011F061F061F061F06E0
:100668001F061F061F061F061F061F061F06AE01D0
:100678001F061F061F061F06AE011F061F061F06C0
:100688001F061F061F061F06AE011F06AE011F0626
:100698001F061F061F061F061F061F061F061F062A
:1006A8001F06AE01AE011F061F061F061F061F0606
:0606B800FF0002EF0CF050
:1016000000002CEC0CF0000E02019B6FD68ED68CE5
:10161000D0B00DEF0BF00FEF0BF031EF0BF0640ECD
:101620000D6415EF0BF017EF0BF02EEF0BF00E50D3
:10163000D8A41DEF0BF01FEF0BF035EF0BF0010EF0
:101640000E6E000E026EFF0E036E000E046E000E94
:10165000056E39EC0BF0FF0008EF0BF00D2A08EFD8
:101660000BF0000E0D6E08EF0BF008EF0BF05DEFC6
:1016700003F0000E0214076EFF0E0314086E000E36
:101680000414096E000E05140A6E000ED6BE010E7B
:10169000066E610024F445F0610020F444F000017E
:1016A0004151F80B0609416FD69E550E426FAA0EA6
:1016B000426F408140B15FEF0BF061EF0BF05AEFEA
:1016C0000BF006B002D0D69E01D0D68EF80E0001E7
:1016D00041171200000EBE6E000EBF6E000EC06EEF
:1016E0003F0EC66EF00EC76EFD0EC86EFC0E0401F6
:1016F000106FF00E086F370E006F000E096F000EAE
:10170000016F010E116F000E026F000E0A6F000EC6
:10171000126F370E036FF00E0B6F13693F0E046FDD
:10172000F00E0C6F146912000C5009E1650E0B5C91
:10173000D8A09DEF0BF09FEF0BF0B6EF0BF0000E73
:101740000C6E000E0B6EC0B2A8EF0BF0ABEF0BF0FF
:10175000010EACEF0BF0000EFF0A016E0146C05007
:101760000118FD0B0118C06EB8EF0BF00B4A0C2AE4
:101770001200D68A000ED6BE010E026ED69E550EFF
:101780000401596FAA0E596F5991000E5F6F060E32
:101790005E6F080E5D6F550E596FAA0E596F598115
:1017A00002B002D0D69E01D0D68E03016A8F1200FD
:1017B000B69E0F501010D8B4E0EF0BF0E2EF0BF034
:1017C000EEEF0BF002D8EEEF0BF00500FA6E0F50C3
:1017D000FD6E1050FE6EFF6AFA5012001100740E7A
:1017E00003011B6F7C0E196F000E186FB69EAB8E37
:1017F000280E026E170E036E37EC0CF0870E0301F5
:101800001A6F12000E6A0D6A0C6A0B6A0401080E48
:101810005D6F060E5E6F000E5F6F000101EF0BF053
:10182000000E0001636F000E646F000E656F000E06
:10183000666F000E676F000E686F1200600E000189
:10184000AD6F000EAF6F010EB36F050EB16F000EDE
:10185000B06F000EAC6F1200B9EC0BF010EC0CF096
:101860006AEC0BF01EEC0CF0EFEC0BF0120002C572
:0E1870000FF503C510F51200B398110011001A
:02FFFE0055FFAD
:020000040020DA
:10000000FF0FFF0FFF0FFF0FFF0FFF0FFF0FFF0F80
:10001000FF0FFF0FFF0FFF0FFF0FFF0FFF0FFF0F70
:020000040030CA
:0A000000ECFFFFFF9FFFFFFFFFFF73
:00000001FF
