:04000000FEEF02F01D
:100222000CEF03F004EF03F0016E020199ABFDD76E
:10023200610004F48BF29499120008D0060E036E4A
:10024200300EE82EFED7032EFCD700D00106D8A030
:1002520002060128F3E10228F1E1120001EE60F149
:10026200800EEE6AE806FDE1156A146A136A126AE4
:10027200116A106A000EF86E000184EF01F0010E9F
:100282000201946F956B966B8C6B8D6B300E906F39
:10029200926FFE0E916F936FAF849B8597819B8DBA
:1002A200F9EC02F09A6B948F1200F86A610008F47C
:1002B200F7F4610004F4F6F409006100D4F305F5E3
:1002C20008006100D4F306F50650036E0550016E76
:1002D20003C502F51200036A0250046E0001456B69
:1002E200610010F444F04151F80B0609416F05D842
:1002F20040B1FED7F80E4117F80C550E426FAA0E08
:10030200426F4081AA0CCFEC01F040EC01F0D69E86
:10031200026A640E016E1EEC01F00268FE0E016EAE
:1003220056EC01F0550E011804E1022802E100EF3B
:1003320003F00EEC02F0FDD70001416B456B61004A
:1003420004F443F0610008F444F0076A0750032400
:10035200D96E000E0420DA6EDF50466F0750032478
:10036200056E000E0420066E0528D96E000E0620CA
:10037200DA6EDF50476F4151F80B0409416F7EEC92
:1003820001F000F000F0F80E00014117020E0726FE
:100392007E0E0764DBD7F80E4117F80C0001636B81
:1003A200646B656B666B676B686B200EBE6EBF6AB3
:1003B200C06A1F0EC66E200EC76EFD0EC86EE00E1E
:1003C2000401106F200E086F130E006F096B016B92
:1003D200180E116F026B500E0A6F126B370E036FFD
:1003E200F00E0B6F13693F0E046FF00E0C6F146961
:1003F2000C0E0201706F210E0F6F220E0D6F0E0E8A
:10040200716F600E0001AD6FAF6B010EB36F050E21
:10041200B16FB06BAC6BC0921200BAA412000201B1
:100422009AA507D09A6B99858C6B8D6B9499136AF8
:10043200D1D09AA708D098A904D0010E126EC0722A
:10044200B8D0020EFBD798A902D0030EF7D7040E3C
:10045200F5D78E519985010E0AD099B1600028FA1C
:100462000FF5130406E10FC515F5146A020E136E9B
:10047200B1D0020E131801E0ADD015040AE11450F8
:1004820004E10FC511F5142A04D0140402E10FC5CA
:1004920010F5020E151801E09DD0A3D861003CF4BE
:1004A200DFF4142A800E141801E094D0140692D0BE
:1004B2008E519985150403E1115015EC01F0030EDC
:1004C200151833E1145031E1C0820E6A10C501F5EE
:1004D20011C502F556EC01F001C50CF502C50DF58A
:1004E200600E0E24D96EDA6A050EDA22610034F447
:1004F200DFF4610E0E24D96EDA6A050EDA2261008B
:1005020030F4DFF4020E1026000E1122020E0E2627
:100512007F0E0E64DBD7C09264D8DF5015EC01F079
:10052200142A800E141801E11406040E15180AE1AB
:1005320010C501F511C502F56CEC01F0112A000E8F
:1005420015EC01F0050E151810E110C501F511C5E5
:1005520002F5600E036E050E046E9DEC01F0800E36
:100562001026000E112215EC01F0060E151832E1CC
:10057200000E15EC01F0C0720A6A0B6A00F00A4A1A
:100582000B2A0A28FBE10B28F9E1FF0023D015040E
:1005920003E1105015EC01F0030E15181BE121D8F0
:1005A200DF5015EC01F0142A800E141801E17ED7F9
:1005B20011D01250086E096A09500CE10850010A64
:1005C20001E176D7030A01E144D7010AE0E0070A14
:1005D20001E143D702019A6B0BD8979999859499B7
:1005E2001200600E1424D96EDA6A050EDA221200A5
:0E05F200BA94BA96BA90BA9212002FEF01F0A6
:040600005DEF03F0B7
:100608001F061F061F061F061E061F061F061F06BB
:100618001F061F061F061F061F061F061F061F06AA
:100628001F06AE01AE01AE011F061F061F061F06FC
:100638001F061F061F061F061F061F061F06EC05BE
:100648001F061F061F061F061F061F061F061F067A
:100658001F061F061F06AE011F061F061F061F06E0
:100668001F061F061F061F061F061F061F06AE01D0
:100678001F061F061F061F06AE011F061F061F06C0
:100688001F061F061F061F06AE011F06AE011F0626
:100698001F061F061F061F061F061F061F061F062A
:1006A8001F06AE01AE011F061F061F061F061F0606
:0606B800FF0002EF0CF050
:1016000000002CEC0CF0000E02019B6FD68ED68CE5
:10161000D0B00DEF0BF00FEF0BF031EF0BF0640ECD
:101620000D6415EF0BF017EF0BF02EEF0BF00E50D3
:10163000D8A41DEF0BF01FEF0BF035EF0BF0010EF0
:101640000E6E000E026EFF0E036E000E046E000E94
:10165000056E39EC0BF0FF0008EF0BF00D2A08EFD8
:101660000BF0000E0D6E08EF0BF008EF0BF05DEFC6
:1016700003F0000E0214076EFF0E0314086E000E36
:101680000414096E000E05140A6E000ED6BE010E7B
:10169000066E610024F445F0610020F444F000017E
:1016A0004151F80B0609416FD69E550E426FAA0EA6
:1016B000426F408140B15FEF0BF061EF0BF05AEFEA
:1016C0000BF006B002D0D69E01D0D68EF80E0001E7
:1016D00041171200000EBE6E000EBF6E000EC06EEF
:1016E0003F0EC66EF00EC76EFD0EC86EFC0E0401F6
:1016F000106FF00E086F370E006F000E096F000EAE
:10170000016F010E116F000E026F000E0A6F000EC6
:10171000126F370E036FF00E0B6F13693F0E046FDD
:10172000F00E0C6F146912000C5009E1650E0B5C91
:10173000D8A09DEF0BF09FEF0BF0B6EF0BF0000E73
:101740000C6E000E0B6EC0B2A8EF0BF0ABEF0BF0FF
:10175000010EACEF0BF0000EFF0A016E0146C05007
:101760000118FD0B0118C06EB8EF0BF00B4A0C2AE4
:101770001200D68A000ED6BE010E026ED69E550EFF
:101780000401596FAA0E596F5991000E5F6F060E32
:101790005E6F080E5D6F550E596FAA0E596F598115
:1017A00002B002D0D69E01D0D68E03016A8F1200FD
:1017B000B69E0F501010D8B4E0EF0BF0E2EF0BF034
:1017C000EEEF0BF002D8EEEF0BF00500FA6E0F50C3
:1017D000FD6E1050FE6EFF6AFA5012001100740E7A
:1017E00003011B6F7C0E196F000E186FB69EAB8E37
:1017F000280E026E170E036E37EC0CF0870E0301F5
:101800001A6F12000E6A0D6A0C6A0B6A0401080E48
:101810005D6F060E5E6F000E5F6F000101EF0BF053
:10182000000E0001636F000E646F000E656F000E06
:10183000666F000E676F000E686F1200600E000189
:10184000AD6F000EAF6F010EB36F050EB16F000EDE
:10185000B06F000EAC6F1200B9EC0BF010EC0CF096
:101860006AEC0BF01EEC0CF0EFEC0BF0120002C572
:0E1870000FF503C510F51200B398110011001A
:02FFFE0055FFAD
:020000040020DA
:10000000FF0FFF0FFF0FFF0FFF0FFF0FFF0FFF0F80
:10001000FF0FFF0FFF0FFF0FFF0FFF0FFF0FFF0F70
:020000040030CA
:0A000000ECFFFFFF9FFFFFFFFFFF73
:00000001FF
